{
  "contractName": "Etudiants",
  "abi": [
    {
      "inputs": [],
      "name": "classe",
      "outputs": [
        {
          "internalType": "enum Etudiants.Classe",
          "name": "",
          "type": "uint8"
        }
      ],
      "stateMutability": "view",
      "type": "function"
    },
    {
      "inputs": [
        {
          "internalType": "address",
          "name": "_addr",
          "type": "address"
        }
      ],
      "name": "getEtudiant",
      "outputs": [
        {
          "components": [
            {
              "internalType": "string",
              "name": "nom",
              "type": "string"
            },
            {
              "internalType": "uint256",
              "name": "note",
              "type": "uint256"
            }
          ],
          "internalType": "struct Etudiants.Etudiant",
          "name": "",
          "type": "tuple"
        }
      ],
      "stateMutability": "view",
      "type": "function"
    },
    {
      "inputs": [],
      "name": "getClasse",
      "outputs": [
        {
          "internalType": "enum Etudiants.Classe",
          "name": "",
          "type": "uint8"
        }
      ],
      "stateMutability": "view",
      "type": "function"
    },
    {
      "inputs": [
        {
          "internalType": "address",
          "name": "_addr",
          "type": "address"
        }
      ],
      "name": "deleteEtudiant",
      "outputs": [],
      "stateMutability": "nonpayable",
      "type": "function"
    },
    {
      "inputs": [
        {
          "internalType": "address",
          "name": "_addr",
          "type": "address"
        },
        {
          "internalType": "string",
          "name": "nom",
          "type": "string"
        },
        {
          "internalType": "uint256",
          "name": "note",
          "type": "uint256"
        }
      ],
      "name": "setEtudiant",
      "outputs": [],
      "stateMutability": "nonpayable",
      "type": "function"
    },
    {
      "inputs": [
        {
          "internalType": "enum Etudiants.Classe",
          "name": "_classe",
          "type": "uint8"
        }
      ],
      "name": "setClasse",
      "outputs": [],
      "stateMutability": "nonpayable",
      "type": "function"
    }
  ],
  "bytecode": "0x608060405234801561001057600080fd5b506109d6806100206000396000f3fe608060405234801561001057600080fd5b50600436106100625760003560e01c80634e0f8fd714610067578063502e241c1461008357806366a83b261461009f57806374e61a78146100bd578063d9b1c146146100d9578063dfdf85c3146100f7575b600080fd5b610081600480360381019061007c91906104d7565b610127565b005b61009d60048036038101906100989190610680565b6101db565b005b6100a761025d565b6040516100b49190610766565b60405180910390f35b6100d760048036038101906100d291906107a6565b610274565b005b6100e16102a1565b6040516100ee9190610766565b60405180910390f35b610111600480360381019061010c91906104d7565b6102b4565b60405161011e91906108a7565b60405180910390f35b604051806040016040528060405180602001604052806000815250815260200160008152506000808373ffffffffffffffffffffffffffffffffffffffff1673ffffffffffffffffffffffffffffffffffffffff16815260200190815260200160002060008201518160000190805190602001906101a69291906103a8565b506020820151816001015590505060005b6001805490508110156101d75780806101cf906108f8565b9150506101b7565b5050565b6040518060400160405280838152602001828152506000808573ffffffffffffffffffffffffffffffffffffffff1673ffffffffffffffffffffffffffffffffffffffff168152602001908152602001600020600082015181600001908051906020019061024a9291906103a8565b5060208201518160010155905050505050565b6000600260009054906101000a900460ff16905090565b80600260006101000a81548160ff02191690836002811115610299576102986106ef565b5b021790555050565b600260009054906101000a900460ff1681565b6102bc61042e565b6000808373ffffffffffffffffffffffffffffffffffffffff1673ffffffffffffffffffffffffffffffffffffffff1681526020019081526020016000206040518060400160405290816000820180546103159061096f565b80601f01602080910402602001604051908101604052809291908181526020018280546103419061096f565b801561038e5780601f106103635761010080835404028352916020019161038e565b820191906000526020600020905b81548152906001019060200180831161037157829003601f168201915b505050505081526020016001820154815250509050919050565b8280546103b49061096f565b90600052602060002090601f0160209004810192826103d6576000855561041d565b82601f106103ef57805160ff191683800117855561041d565b8280016001018555821561041d579182015b8281111561041c578251825591602001919060010190610401565b5b50905061042a9190610448565b5090565b604051806040016040528060608152602001600081525090565b5b80821115610461576000816000905550600101610449565b5090565b6000604051905090565b600080fd5b600080fd5b600073ffffffffffffffffffffffffffffffffffffffff82169050919050565b60006104a482610479565b9050919050565b6104b481610499565b81146104bf57600080fd5b50565b6000813590506104d1816104ab565b92915050565b6000602082840312156104ed576104ec61046f565b5b60006104fb848285016104c2565b91505092915050565b600080fd5b600080fd5b6000601f19601f8301169050919050565b7f4e487b7100000000000000000000000000000000000000000000000000000000600052604160045260246000fd5b6105578261050e565b810181811067ffffffffffffffff821117156105765761057561051f565b5b80604052505050565b6000610589610465565b9050610595828261054e565b919050565b600067ffffffffffffffff8211156105b5576105b461051f565b5b6105be8261050e565b9050602081019050919050565b82818337600083830152505050565b60006105ed6105e88461059a565b61057f565b90508281526020810184848401111561060957610608610509565b5b6106148482856105cb565b509392505050565b600082601f83011261063157610630610504565b5b81356106418482602086016105da565b91505092915050565b6000819050919050565b61065d8161064a565b811461066857600080fd5b50565b60008135905061067a81610654565b92915050565b6000806000606084860312156106995761069861046f565b5b60006106a7868287016104c2565b935050602084013567ffffffffffffffff8111156106c8576106c7610474565b5b6106d48682870161061c565b92505060406106e58682870161066b565b9150509250925092565b7f4e487b7100000000000000000000000000000000000000000000000000000000600052602160045260246000fd5b6003811061072f5761072e6106ef565b5b50565b60008190506107408261071e565b919050565b600061075082610732565b9050919050565b61076081610745565b82525050565b600060208201905061077b6000830184610757565b92915050565b6003811061078e57600080fd5b50565b6000813590506107a081610781565b92915050565b6000602082840312156107bc576107bb61046f565b5b60006107ca84828501610791565b91505092915050565b600081519050919050565b600082825260208201905092915050565b60005b8381101561080d5780820151818401526020810190506107f2565b8381111561081c576000848401525b50505050565b600061082d826107d3565b61083781856107de565b93506108478185602086016107ef565b6108508161050e565b840191505092915050565b6108648161064a565b82525050565b600060408301600083015184820360008601526108878282610822565b915050602083015161089c602086018261085b565b508091505092915050565b600060208201905081810360008301526108c1818461086a565b905092915050565b7f4e487b7100000000000000000000000000000000000000000000000000000000600052601160045260246000fd5b60006109038261064a565b91507fffffffffffffffffffffffffffffffffffffffffffffffffffffffffffffffff8203610935576109346108c9565b5b600182019050919050565b7f4e487b7100000000000000000000000000000000000000000000000000000000600052602260045260246000fd5b6000600282049050600182168061098757607f821691505b60208210810361099a57610999610940565b5b5091905056fea26469706673582212205d9a663898a10bfb155d862aa10d4ef67e93801e5050b61bae1f7664349ecc7e64736f6c634300080e0033",
  "immutableReferences": {},
  "source": "// SPDX-License-Identifier: GPL-3.0\n\npragma solidity >=0.8.14;\n\ncontract Etudiants {\n\n    struct Etudiant{\n        string nom;\n        uint note;\n    }\n\n    mapping(address=>Etudiant) etudiants;\n    Etudiants[] etudiantsArray;\n\n    enum Classe {\n    sixieme,\n    cinquieme,\n    quatrieme\n    }\n\n\n    Classe public classe;\n\n    function getEtudiant(address _addr) public view returns(Etudiant memory){\n        return etudiants[_addr];\n    }\n\n    function getClasse() public view returns( Classe ){\n        return classe;\n    }\n\n    function deleteEtudiant(address _addr) public{\n        etudiants[_addr] = Etudiant(\"\",0);\n        for(uint i=0;i<etudiantsArray.length;i++){\n            //if(keccak256(abi.encodePacked(etudiantsArray[i].name)) == keccak256(abi.encodePacked(Etudiants[_addr].name))){\n\n            //}\n        }\n    }\n\n    function setEtudiant(address _addr,string memory nom, uint note) public{\n        etudiants[_addr] = Etudiant(nom,note);\n    }\n\n    function setClasse(Classe _classe) public{\n        classe = _classe;\n        \n    }\n\n}",
  "sourcePath": "/home/carmelo/Developpeur-Ethereum-Template/4. Truffle & CI-CD/contracts/Students.sol",
  "compiler": {
    "name": "solc",
    "version": "0.8.14+commit.80d49f37.Emscripten.clang"
  },
  "schemaVersion": "3.4.7",
  "updatedAt": "2022-07-12T16:23:05.039Z",
  "devdoc": {
    "kind": "dev",
    "methods": {},
    "version": 1
  },
  "userdoc": {
    "kind": "user",
    "methods": {},
    "version": 1
  }
}